{
  "address": "0xD2aD654a5D7d42535E31c975b67274fa7687FdDD",
  "abi": [
    {
      "stateMutability": "nonpayable",
      "type": "fallback"
    },
    {
      "inputs": [
        {
          "internalType": "string",
          "name": "_name",
          "type": "string"
        }
      ],
      "name": "addTask",
      "outputs": [],
      "stateMutability": "nonpayable",
      "type": "function"
    },
    {
      "inputs": [
        {
          "internalType": "uint256",
          "name": "id",
          "type": "uint256"
        }
      ],
      "name": "completeTask",
      "outputs": [],
      "stateMutability": "nonpayable",
      "type": "function"
    },
    {
      "inputs": [
        {
          "internalType": "uint256",
          "name": "id",
          "type": "uint256"
        }
      ],
      "name": "deleteTask",
      "outputs": [],
      "stateMutability": "nonpayable",
      "type": "function"
    },
    {
      "inputs": [],
      "name": "getTasks",
      "outputs": [
        {
          "components": [
            {
              "internalType": "uint256",
              "name": "id",
              "type": "uint256"
            },
            {
              "internalType": "string",
              "name": "name",
              "type": "string"
            },
            {
              "internalType": "bool",
              "name": "isCompleted",
              "type": "bool"
            },
            {
              "internalType": "address",
              "name": "user",
              "type": "address"
            }
          ],
          "internalType": "struct ToDo.Task[]",
          "name": "",
          "type": "tuple[]"
        }
      ],
      "stateMutability": "view",
      "type": "function"
    }
  ],
  "transactionHash": "0x3fbdd3fe3e4a5d73a6a3229dd966a9beae1b2cb20d0220ac8d32451635e7e255",
  "args": [],
  "numDeployments": 1,
  "solcInputHash": "0fcfaa100a6f98818c1f0488ff5d81fd",
  "bytecode": "0x608060405234801561001057600080fd5b506110f8806100206000396000f3fe608060405234801561001057600080fd5b50600436106100505760003560e01c806304a87e3814610053578063560f319214610071578063672385621461008d578063e1e29558146100a957610051565b5b005b61005b6100c5565b604051610068919061099c565b60405180910390f35b61008b600480360381019061008691906109fe565b6103d6565b005b6100a760048036038101906100a29190610b60565b61059e565b005b6100c360048036038101906100be91906109fe565b610694565b005b60606000805b600080549050811015610172573373ffffffffffffffffffffffffffffffffffffffff166000828154811061010357610102610ba9565b5b906000526020600020906003020160020160019054906101000a900473ffffffffffffffffffffffffffffffffffffffff1673ffffffffffffffffffffffffffffffffffffffff160361015f57818061015b90610c07565b9250505b808061016a90610c07565b9150506100cb565b5060008167ffffffffffffffff81111561018f5761018e610a35565b5b6040519080825280602002602001820160405280156101c857816020015b6101b56106d5565b8152602001906001900390816101ad5790505b5090506000805b6000805490508110156103cc573373ffffffffffffffffffffffffffffffffffffffff166000828154811061020757610206610ba9565b5b906000526020600020906003020160020160019054906101000a900473ffffffffffffffffffffffffffffffffffffffff1673ffffffffffffffffffffffffffffffffffffffff16036103b9576000818154811061026857610267610ba9565b5b90600052602060002090600302016040518060800160405290816000820154815260200160018201805461029b90610c7e565b80601f01602080910402602001604051908101604052809291908181526020018280546102c790610c7e565b80156103145780601f106102e957610100808354040283529160200191610314565b820191906000526020600020905b8154815290600101906020018083116102f757829003601f168201915b505050505081526020016002820160009054906101000a900460ff161515151581526020016002820160019054906101000a900473ffffffffffffffffffffffffffffffffffffffff1673ffffffffffffffffffffffffffffffffffffffff1673ffffffffffffffffffffffffffffffffffffffff168152505083838061039a90610c07565b9450815181106103ad576103ac610ba9565b5b60200260200101819052505b80806103c490610c07565b9150506101cf565b5081935050505090565b60008054905081101561059b5760008190505b60016000805490506103fb9190610caf565b81101561051b5760006001826104119190610ce3565b8154811061042257610421610ba9565b5b90600052602060002090600302016000828154811061044457610443610ba9565b5b906000526020600020906003020160008201548160000155600182018160010190816104709190610ed9565b506002820160009054906101000a900460ff168160020160006101000a81548160ff0219169083151502179055506002820160019054906101000a900473ffffffffffffffffffffffffffffffffffffffff168160020160016101000a81548173ffffffffffffffffffffffffffffffffffffffff021916908373ffffffffffffffffffffffffffffffffffffffff160217905550905050808061051390610c07565b9150506103e9565b50600080548061052e5761052d610fc1565b5b600190038181906000526020600020906003020160008082016000905560018201600061055b9190610715565b6002820160006101000a81549060ff02191690556002820160016101000a81549073ffffffffffffffffffffffffffffffffffffffff0219169055505090555b50565b6000604051806080016040528060008054905081526020018381526020016000151581526020013373ffffffffffffffffffffffffffffffffffffffff1681525090806001815401808255809150506001900390600052602060002090600302016000909190919091506000820151816000015560208201518160010190816106279190610ff0565b5060408201518160020160006101000a81548160ff02191690831515021790555060608201518160020160016101000a81548173ffffffffffffffffffffffffffffffffffffffff021916908373ffffffffffffffffffffffffffffffffffffffff160217905550505050565b6001600082815481106106aa576106a9610ba9565b5b906000526020600020906003020160020160006101000a81548160ff02191690831515021790555050565b60405180608001604052806000815260200160608152602001600015158152602001600073ffffffffffffffffffffffffffffffffffffffff1681525090565b50805461072190610c7e565b6000825580601f106107335750610752565b601f0160209004906000526020600020908101906107519190610755565b5b50565b5b8082111561076e576000816000905550600101610756565b5090565b600081519050919050565b600082825260208201905092915050565b6000819050602082019050919050565b6000819050919050565b6107b18161079e565b82525050565b600081519050919050565b600082825260208201905092915050565b60005b838110156107f15780820151818401526020810190506107d6565b60008484015250505050565b6000601f19601f8301169050919050565b6000610819826107b7565b61082381856107c2565b93506108338185602086016107d3565b61083c816107fd565b840191505092915050565b60008115159050919050565b61085c81610847565b82525050565b600073ffffffffffffffffffffffffffffffffffffffff82169050919050565b600061088d82610862565b9050919050565b61089d81610882565b82525050565b60006080830160008301516108bb60008601826107a8565b50602083015184820360208601526108d3828261080e565b91505060408301516108e86040860182610853565b5060608301516108fb6060860182610894565b508091505092915050565b600061091283836108a3565b905092915050565b6000602082019050919050565b600061093282610772565b61093c818561077d565b93508360208202850161094e8561078e565b8060005b8581101561098a578484038952815161096b8582610906565b94506109768361091a565b925060208a01995050600181019050610952565b50829750879550505050505092915050565b600060208201905081810360008301526109b68184610927565b905092915050565b6000604051905090565b600080fd5b600080fd5b6109db8161079e565b81146109e657600080fd5b50565b6000813590506109f8816109d2565b92915050565b600060208284031215610a1457610a136109c8565b5b6000610a22848285016109e9565b91505092915050565b600080fd5b600080fd5b7f4e487b7100000000000000000000000000000000000000000000000000000000600052604160045260246000fd5b610a6d826107fd565b810181811067ffffffffffffffff82111715610a8c57610a8b610a35565b5b80604052505050565b6000610a9f6109be565b9050610aab8282610a64565b919050565b600067ffffffffffffffff821115610acb57610aca610a35565b5b610ad4826107fd565b9050602081019050919050565b82818337600083830152505050565b6000610b03610afe84610ab0565b610a95565b905082815260208101848484011115610b1f57610b1e610a30565b5b610b2a848285610ae1565b509392505050565b600082601f830112610b4757610b46610a2b565b5b8135610b57848260208601610af0565b91505092915050565b600060208284031215610b7657610b756109c8565b5b600082013567ffffffffffffffff811115610b9457610b936109cd565b5b610ba084828501610b32565b91505092915050565b7f4e487b7100000000000000000000000000000000000000000000000000000000600052603260045260246000fd5b7f4e487b7100000000000000000000000000000000000000000000000000000000600052601160045260246000fd5b6000610c128261079e565b91507fffffffffffffffffffffffffffffffffffffffffffffffffffffffffffffffff8203610c4457610c43610bd8565b5b600182019050919050565b7f4e487b7100000000000000000000000000000000000000000000000000000000600052602260045260246000fd5b60006002820490506001821680610c9657607f821691505b602082108103610ca957610ca8610c4f565b5b50919050565b6000610cba8261079e565b9150610cc58361079e565b9250828203905081811115610cdd57610cdc610bd8565b5b92915050565b6000610cee8261079e565b9150610cf98361079e565b9250828201905080821115610d1157610d10610bd8565b5b92915050565b600081549050610d2681610c7e565b9050919050565b60008190508160005260206000209050919050565b60006020601f8301049050919050565b600082821b905092915050565b600060088302610d8f7fffffffffffffffffffffffffffffffffffffffffffffffffffffffffffffffff82610d52565b610d998683610d52565b95508019841693508086168417925050509392505050565b6000819050919050565b6000610dd6610dd1610dcc8461079e565b610db1565b61079e565b9050919050565b6000819050919050565b610df083610dbb565b610e04610dfc82610ddd565b848454610d5f565b825550505050565b600090565b610e19610e0c565b610e24818484610de7565b505050565b5b81811015610e4857610e3d600082610e11565b600181019050610e2a565b5050565b601f821115610e8d57610e5e81610d2d565b610e6784610d42565b81016020851015610e76578190505b610e8a610e8285610d42565b830182610e29565b50505b505050565b600082821c905092915050565b6000610eb060001984600802610e92565b1980831691505092915050565b6000610ec98383610e9f565b9150826002028217905092915050565b818103610ee7575050610fbf565b610ef082610d17565b67ffffffffffffffff811115610f0957610f08610a35565b5b610f138254610c7e565b610f1e828285610e4c565b6000601f831160018114610f4d5760008415610f3b578287015490505b610f458582610ebd565b865550610fb8565b601f198416610f5b87610d2d565b9650610f6686610d2d565b60005b82811015610f8e57848901548255600182019150600185019450602081019050610f69565b86831015610fab5784890154610fa7601f891682610e9f565b8355505b6001600288020188555050505b5050505050505b565b7f4e487b7100000000000000000000000000000000000000000000000000000000600052603160045260246000fd5b610ff9826107b7565b67ffffffffffffffff81111561101257611011610a35565b5b61101c8254610c7e565b611027828285610e4c565b600060209050601f83116001811461105a5760008415611048578287015190505b6110528582610ebd565b8655506110ba565b601f19841661106886610d2d565b60005b828110156110905784890151825560018201915060208501945060208101905061106b565b868310156110ad57848901516110a9601f891682610e9f565b8355505b6001600288020188555050505b50505050505056fea264697066735822122035ab74020e493bc6aa499a36450180bf5fee7b4de7f62338b38e82017268859064736f6c63430008110033",
  "devdoc": {
    "kind": "dev",
    "methods": {},
    "version": 1
  },
  "userdoc": {
    "kind": "user",
    "methods": {},
    "version": 1
  },
  "storageLayout": {
    "storage": [
      {
        "astId": 14,
        "contract": "contracts/ToDo.sol:ToDo",
        "label": "tasks",
        "offset": 0,
        "slot": "0",
        "type": "t_array(t_struct(Task)10_storage)dyn_storage"
      }
    ],
    "types": {
      "t_address": {
        "encoding": "inplace",
        "label": "address",
        "numberOfBytes": "20"
      },
      "t_array(t_struct(Task)10_storage)dyn_storage": {
        "base": "t_struct(Task)10_storage",
        "encoding": "dynamic_array",
        "label": "struct ToDo.Task[]",
        "numberOfBytes": "32"
      },
      "t_bool": {
        "encoding": "inplace",
        "label": "bool",
        "numberOfBytes": "1"
      },
      "t_string_storage": {
        "encoding": "bytes",
        "label": "string",
        "numberOfBytes": "32"
      },
      "t_struct(Task)10_storage": {
        "encoding": "inplace",
        "label": "struct ToDo.Task",
        "members": [
          {
            "astId": 3,
            "contract": "contracts/ToDo.sol:ToDo",
            "label": "id",
            "offset": 0,
            "slot": "0",
            "type": "t_uint256"
          },
          {
            "astId": 5,
            "contract": "contracts/ToDo.sol:ToDo",
            "label": "name",
            "offset": 0,
            "slot": "1",
            "type": "t_string_storage"
          },
          {
            "astId": 7,
            "contract": "contracts/ToDo.sol:ToDo",
            "label": "isCompleted",
            "offset": 0,
            "slot": "2",
            "type": "t_bool"
          },
          {
            "astId": 9,
            "contract": "contracts/ToDo.sol:ToDo",
            "label": "user",
            "offset": 1,
            "slot": "2",
            "type": "t_address"
          }
        ],
        "numberOfBytes": "96"
      },
      "t_uint256": {
        "encoding": "inplace",
        "label": "uint256",
        "numberOfBytes": "32"
      }
    }
  }
}